:1000000012C019C018C017C016C015C014C013C044
:1000100012C011C010C00FC00EC00DC00CC00BC06C
:100020000AC009C008C011241FBECFE5D4E0DEBF5E
:10003000CDBF14D024C0E4CF899A889810BC83E344
:1000400089B988E18AB986E080BD08955D9BFECFBD
:100050008CB908955F9BFECF8CB10895B898C09A73
:10006000EBDFB09902C08FEFF1DF2FEF81EE94E06C
:10007000215080409040E1F700C00000F2CFF8949A
:02008000FFCFB0
:00000001FF
