:1000000012C02CC02BC02AC029C029C027C026C0BE
:1000100025C024C023C022C021C020C01FC01EC0D4
:100020001DC01CC01BC011241FBECFE5D4E0DEBF25
:10003000CDBF10E0A0E6B0E0ECE1F8E002C0059032
:100040000D92AC38B107D9F720E0ACE8B0E001C0C0
:100050001D92A839B207E1F770D0DEC3D1CF1F924D
:100060000F920FB60F9211242F933F938F939F936C
:100070008091900090919100892B19F486B597B5E5
:1000800023C086B597B590938F0080938E00209102
:100090008E0030918F0080919000909191002817F0
:1000A0003907B1F080918E0090918F0020919000DF
:1000B00030919100821B930B90938D0080938C0064
:1000C00080918E0090918F0090939100809390008A
:1000D0009F918F913F912F910F900FBE0F901F9086
:1000E0001895899A889810BC83E389B988E18AB900
:1000F00086E080BD08955D9BFECF8CB908955F9B1F
:10010000FECF8CB10895CF93C82F8A3021F460E0E0
:1001100070E08DE0F8DF5D9BFECFCCB980E090E031
:10012000CF910895CF935F9BFECFCCB1BC018C2FB4
:10013000EADF8C2F90E0CF91089587B38A6087BB68
:100140001FBC8EB583608EBD8EB580648EBD85B5B7
:10015000806685BD85B5836085BD8FE583BDC1DFC4
:1001600080E690E0909395008093940090939300A4
:100170008093920094E6D92E0EE610E0812C22E1C5
:10018000922E2AE7A22EB12C3FE7E32E30E0F32E89
:100190001DBC1CBC08B605FEFDCF4CB55DB58EB5CB
:1001A0008F7B8EBD88B7806288BF08B605FEFDCF05
:1001B0008CB59DB52EB520642EBD28B7206228BF12
:1001C00008B605FEFDCFCCB5DDB538B7306238BF17
:1001D0008C179D0778F54817590760F5C41BD50B98
:1001E0009C01241B350BD29EC001D39E900D11247F
:1001F000BE0123D077277F936F931F930F9353D024
:100200009E0186E0220F331F8A95E1F740E050E01F
:10021000C501B40126D05F934F933F932F93FF9274
:10022000EF9241D08DB79EB70A960FB6F8949EBF55
:100230000FBE8DBF1DBC1CBCABCFAA1BBB1B51E1AD
:1002400007C0AA1FBB1FA617B70710F0A61BB70B46
:10025000881F991F5A95A9F780959095BC01CD01EB
:100260000895A1E21A2EAA1BBB1BFD010DC0AA1FF7
:10027000BB1FEE1FFF1FA217B307E407F50720F00F
:10028000A21BB30BE40BF50B661F771F881F991F8A
:100290001A9469F760957095809590959B01AC01D3
:1002A000BD01CF010895A0E0B0E0E8E5F1E08DC226
:1002B000AE014B5F5F4FFA0161917191AF01809187
:1002C00094009091950002D0E2E09BC2ACE0B0E0D7
:1002D000EBE6F1E06AC27C016B018A01FC01178246
:1002E0001682838181FFB0C1CE0101964C01F701D6
:1002F0009381F60193FD859193FF81916F0188238E
:1003000009F49EC1853239F493FD859193FF819163
:100310006F01853221F4B70190E0B1D1E8CF512CC3
:10032000312C20E02032A0F48B3269F030F480329E
:1003300059F0833269F420612CC08D3239F080335A
:1003400039F4216026C02260246023C0286021C0C7
:1003500027FD27C030ED380F3A3078F426FF06C06D
:10036000FAE05F9E300D1124532E13C08AE0389EB0
:10037000300D1124332E20620CC08E3221F426FD64
:100380005FC1206406C08C3611F4206802C0883634
:1003900041F4F60193FD859193FF81916F018111E5
:1003A000C1CF982F9F7D9554933028F40C5F1F4F39
:1003B000FFE3F9830DC0833631F0833771F0833565
:1003C00009F057C021C0F801808189830E5F1F4F5B
:1003D00044244394512C540114C03801F2E06F0EB0
:1003E000711CF801A080B18026FF03C0652D70E06C
:1003F00002C06FEF7FEFC5012C8736D12C0183013E
:100400002C852F77222E16C03801F2E06F0E711C5A
:10041000F801A080B18026FF03C0652D70E002C006
:100420006FEF7FEFC5012C8714D12C012C8520683C
:10043000222E830123FC19C0832D90E04816590613
:10044000A0F4B70180E290E01AD13A94F5CFF5011B
:1004500027FC859127FE81915F01B70190E00FD1C4
:1004600031103A94F1E04F1A51084114510479F7D0
:10047000DEC0843611F0893631F5F80127FF07C058
:1004800060817181828193810C5F1F4F08C0608100
:100490007181072E000C880B990B0E5F1F4F2F7672
:1004A000722E97FF09C090958095709561957F4F4A
:1004B0008F4F9F4F2068722E2AE030E0A40117D1A1
:1004C000A82EA81843C0853729F42F7EB22E2AE023
:1004D00030E025C0F22FF97FBF2E8F36C1F018F41F
:1004E000883579F0ADC0803719F0883721F0A8C081
:1004F0002F2F2061B22EB4FE0DC08B2D8460B82E3C
:1005000009C024FF0AC09F2F9660B92E06C028E0BC
:1005100030E005C020E130E002C020E132E0F80127
:10052000B7FE07C060817181828193810C5F1F4F8C
:1005300006C06081718180E090E00E5F1F4FA401D2
:10054000D6D0A82EA818FB2DFF777F2E76FE0BC0E5
:10055000372D3E7FA51450F474FE0AC072FC08C00B
:10056000372D3E7E05C0BA2C372D03C0BA2C01C0F2
:10057000B52C34FF0DC0FE01EA0DF11D80818033E2
:1005800011F4397E09C032FF06C0B394B39404C09D
:10059000832F867809F0B39433FD12C030FF06C074
:1005A0005A2CB31418F4530C5B18B32CB31460F426
:1005B000B70180E290E03C8762D0B3943C85F6CFEF
:1005C000B31410F43B1801C0312C34FF11C0B70133
:1005D00080E390E03C8753D03C8532FF16C031FD6C
:1005E00003C088E790E002C088E590E0B7010CC046
:1005F000832F867851F031FF02C08BE201C080E288
:1006000037FD8DE2B70190E03AD0A51430F4B70180
:1006100080E390E034D05A94F8CFAA94F401EA0D24
:10062000F11D8081B70190E02AD0A110F6CF3320D0
:1006300009F45DCEB70180E290E021D03A94F7CF83
:10064000F7018681978102C08FEF9FEF2C96E2E140
:10065000C8C0FC010590615070400110D8F780952A
:1006600090958E0F9F1F0895FC016150704001907E
:100670000110D8F7809590958E0F9F1F08950F93C6
:100680001F93CF93DF93FB01238121FD03C08FEFE5
:100690009FEF28C022FF16C04681578124813581F3
:1006A0004217530744F4A081B1819D012F5F3F4F52
:1006B000318320838C93268137812F5F3F4F37838F
:1006C000268310C0EB01092F182F0084F185E02D3F
:1006D0000995892BE1F68E819F8101969F838E83F8
:1006E000812F902FDF91CF911F910F910895FA01E3
:1006F000AA27283051F1203181F1E8946F936E7F61
:100700006E5F7F4F8F4F9F4FAF4FB1E03ED0B4E051
:100710003CD0670F781F891F9A1FA11D680F791F92
:100720008A1F911DA11D6A0F711D811D911DA11DA3
:1007300020D009F468943F912AE0269F11243019B3
:10074000305D3193DEF6CF010895462F4770405D4E
:100750004193B3E00FD0C9F7F6CF462F4F70405DFD
:100760004A3318F0495D31FD4052419302D0A9F758
:10077000EACFB4E0A6959795879577956795BA9552
:10078000C9F700976105710508959B01AC010A2E18
:1007900006945795479537952795BA95C9F7620FEF
:1007A000731F841F951FA01D08952F923F924F9293
:1007B0005F926F927F928F929F92AF92BF92CF92F1
:1007C000DF92EF92FF920F931F93CF93DF93CDB7FA
:1007D000DEB7CA1BDB0B0FB6F894DEBF0FBECDBF72
:1007E00009942A88398848885F846E847D848C8443
:1007F0009B84AA84B984C884DF80EE80FD800C814C
:100800001B81AA81B981CE0FD11D0FB6F894DEBF2E
:0C0810000FBECDBFED010895F894FFCF9E
:10081C0000000003000000008300920000006475DB
:10082C0074795F6379636C653D257520250A0066D4
:0C083C007265713D257520485A0A0000C5
:00000001FF
