:1000000012C019C018C017C016C015C014C013C044
:1000100012C011C010C00FC00EC00DC00CC00BC06C
:100020000AC009C008C011241FBECFE5D4E0DEBF5E
:10003000CDBF92D0A7C0E4CF11B882E080B986B717
:10004000846086BF089584EA86BF06B607FEFDCFAA
:10005000089584E986BF089583B984EA86BF06B609
:1000600007FEFDCF0895811102C084EC01C084E831
:1000700086BF06B607FEFDCF83B1089594E096BF14
:1000800082B984EC86BF089583B984EC86BF06B636
:1000900007FEFDCF0895811102C084EC01C084E801
:1000A00086BF06B607FEFDCF83B1089506B607FEEC
:1000B000FDCF089583B984E886BF06B607FEFDCF5D
:1000C0000895811102C084EC01C084E886BF06B6A1
:1000D00007FEFDCF83B1089583B984EC86BF06B6D1
:1000E00007FEFDCF0895811102C084EC01C084E8B1
:1000F00086BF06B607FEFDCF83B108951F93CF9349
:10010000DF931F92CDB7DEB7182F9DDF80EAD2DFD5
:10011000812FD0DF98DF81EACDDF81E0D2DF8983D4
:1001200098DF89810F90DF91CF911F9108951F93E0
:10013000CF93DF931F92CDB7DEB7182F698383DF8C
:1001400080EAB8DF6981862FB5DF812FB3DF0F909A
:10015000DF91CF911F917DCF8FEF81BB6DDFCFEF0F
:1001600060E080EEE4DF2FE38DE093E021508040FB
:100170009040E1F700C0000080E0C0DF803E81F7E2
:08018000C2BBEECFF894FFCFE3
:00000001FF
