:100000000C9434000C94AC000C9451000C945100EE
:100010000C9451000C9451000C9451000C9451001C
:100020000C9451000C9451000C9451000C9453000A
:100030000C9451000C9451000C9451000C945100FC
:100040000C9451000C9451000C9451000C945100EC
:100050000C9451000C9451000C9451000C945100DC
:100060000C9451000C94510011241FBECFEFD8E026
:10007000DEBFCDBF11E0A0E0B1E0E0E8F9E002C0F2
:1000800005900D92A031B107D9F721E0A0E1B1E0D0
:1000900001C01D92A631B207E1F70E940B020C9439
:1000A000BE040C9400001F920F920FB60F92112401
:1000B0008F939F938091140190911501CC974CF4EC
:1000C00080911401909115010196909315018093F0
:1000D00014018091140190911501CC9799F48091AD
:1000E000120190911301CC974CF4809112019091E0
:1000F0001301019690931301809312011092150140
:10010000109214018091120190911301CC9799F4EF
:10011000809110019091110148974CF48091100149
:10012000909111010196909311018093100110920A
:1001300013011092120180911001909111014897C2
:1001400021F410921101109210019F918F910F9044
:100150000FBE0F901F9018951F920F920FB60F921F
:100160001124CF92DF92EF92FF922F933F934F9300
:100170005F936F937F938F939F93AF93BF93EF930F
:10018000FF930E942C010E94EF0180E00E94F60183
:10019000BC0180E090E00E948E0320E030E44CE956
:1001A00050E40E941C0420E030E040E251E40E9450
:1001B000E6020E9458036B017C01672BE9F08EE098
:1001C0000E94110181E00E94110180E80E9411014A
:1001D00084E091E00E946101C6010E946D018BE004
:1001E00091E00E9461012FE38DE093E02150804077
:1001F0009040E1F700C00000FF91EF91BF91AF91F7
:100200009F918F917F916F915F914F913F912F912E
:10021000FF90EF90DF90CF900F900FBE0F901F9048
:100220001895982F907F9BB94498459A000045985F
:1002300023E02A95F1F7000020E18202C001112499
:100240008BB94498459A0000459889EF90E0019752
:10025000F1F700C00000089583ED90E30197F1F7F6
:1002600000C000008AB1806F8AB93C9A3D9A82E052
:100270000E94110188E20E9411018EE00E9411018A
:1002800081E00E94110180E80C941101982F907F69
:100290009BB9449A459A0000459823E02A95F1F7C6
:1002A000000020E18202C00111248BB9449A459AD2
:1002B0000000459889EF90E00197F1F700C0000039
:1002C0000895CF93DF93EC018991882319F00E9460
:1002D0004601FACFDF91CF9108950F931F93CF93EB
:1002E000DF93CDB7DEB728970FB6F894DEBF0FBE09
:1002F000CDBF19821A821B821C821D821E821F8220
:1003000018864AE0BE016F5F7F4F0E9489048E010C
:100310000F5F1F4FF80181918F01882319F00E9410
:100320004601F8CF28960FB6F894DEBF0FBECDBFBA
:10033000DF91CF911F910F910895FF920F931F931B
:10034000CF93DF938C0123E030E08AE0F82E61E068
:1003500070E080E090E08217930741F0AB01F49EDB
:10036000B001F59E700D11240196F5CFC8010E94D1
:10037000BE0240E3460F61E070E0C0E0D0E0C2178B
:10038000D30741F0CB01F89EB001F99E700D112406
:100390002196F5CFC8010E94BE028C01842F0E94D5
:1003A00046019E012150310990F6DF91CF911F91B6
:1003B0000F91FF900895AC0181E090E020E030E0E3
:1003C000261737075CF4FC01E49FC001E59F900D00
:1003D000F49F900D11242F5F3F4FF2CF089580E4DA
:1003E00080937C0083E880937A00089590917C004C
:1003F0008F71907E892B80937C0080917A0080643D
:1004000080937A0080917A0086FDFCCF80917800FD
:1004100090917900089552985A9A8091690081606C
:1004200080936900E89A789480EF84B98FE085B969
:100430000E942C01809181008D608093810080ED6D
:1004400093E0909389008093880080916F00826090
:1004500080936F00CCE3D0E008E110E0189914C05D
:1004600087EA91E60197F1F700C0000018990CC0E7
:1004700080911201909113010196BE010E94BE026B
:100480009093130180931201199914C087EA91E6A1
:100490000197F1F700C0000019990CC0809110017C
:1004A000909111010196B8010E94BE029093110132
:1004B000809310011A991BC0809112019091130131
:1004C00018161906A4F487EA91E60197F1F700C01F
:1004D00000001A990CC080911201909113010197AC
:1004E000BE010E94BE0290931301809312011B99DA
:1004F0001BC0809110019091110118161906A4F4E7
:1005000087EA91E60197F1F700C000001B990CC043
:1005100080911001909111010197B8010E94BE02D3
:1005200090931101809310018EE00E94110181E0EF
:100530000E94110180E80E941101809110019091A8
:1005400011010E946D0180E091E00E9461018091A3
:100550001201909113010E946D0180E091E00E94D0
:10056000610180911401909115010E946D0185EA4D
:100570009EE00197F1F700C0000070CF97FB072EB7
:1005800016F4009407D077FD09D00E94D20207FC30
:1005900005D03EF4909581959F4F08957095619593
:1005A0007F4F0895AA1BBB1B51E107C0AA1FBB1FA9
:1005B000A617B70710F0A61BB70B881F991F5A95EF
:1005C000A9F780959095BC01CD0108950E94FA028B
:1005D0000C94E2030E94DB0358F00E94D40340F025
:1005E00029F45F3F29F00C94CB0351110C941604AD
:1005F0000C94D1030E94F30368F39923B1F35523BC
:1006000091F3951B550BBB27AA2762177307840725
:1006100038F09F5F5F4F220F331F441FAA1FA9F3BB
:1006200035D00E2E3AF0E0E832D091505040E695A9
:10063000001CCAF72BD0FE2F29D0660F771F881F0A
:10064000BB1F261737074807AB07B0E809F0BB0BFD
:10065000802DBF01FF2793585F4F3AF09E3F510511
:1006600078F00C94CB030C9416045F3FE4F3983EAF
:10067000D4F3869577956795B795F7959F5FC9F7FA
:10068000880F911D9695879597F90895E1E0660F7B
:10069000771F881FBB1F621773078407BA0720F0F4
:1006A000621B730B840BBA0BEE1F88F7E09508955D
:1006B0000E945F036894B1110C94160408950E947F
:1006C000FB0388F09F5798F0B92F9927B751B0F0E6
:1006D000E1F0660F771F881F991F1AF0BA95C9F7C6
:1006E00014C0B13091F00E941504B1E008950C944B
:1006F0001504672F782F8827B85F39F0B93FCCF3FE
:10070000869577956795B395D9F73EF49095809542
:10071000709561957F4F8F4F9F4F0895E89409C062
:1007200097FB3EF490958095709561957F4F8F4F24
:100730009F4F9923A9F0F92F96E9BB279395F6953A
:10074000879577956795B795F111F8CFFAF4BB0FB8
:1007500011F460FF1BC06F5F7F4F8F4F9F4F16C01C
:10076000882311F096E911C0772321F09EE8872FA6
:10077000762F05C0662371F096E8862F70E060E062
:100780002AF09A95660F771F881FDAF7880F9695DB
:10079000879597F9089597F99F6780E870E060E082
:1007A00008959FEF80EC089500240A94161617060A
:1007B00018060906089500240A9412161306140652
:1007C00005060895092E0394000C11F4882352F0B5
:1007D000BB0F40F4BF2B11F460FF04C06F5F7F4F6D
:1007E0008F4F9F4F089557FD9058440F551F59F054
:1007F0005F3F71F04795880F97FB991F61F09F3F0E
:1008000079F087950895121613061406551FF2CF36
:100810004695F1DF08C0161617061806991FF1CF86
:1008200086957105610508940895E894BB276627AD
:100830007727CB0197F908950E942F040C94E203C7
:100840000E94D40338F00E94DB0320F0952311F0BE
:100850000C94CB030C94D10311240C9416040E9425
:10086000F30370F3959FC1F3950F50E0551F629FFE
:10087000F001729FBB27F00DB11D639FAA27F00DF9
:10088000B11DAA1F649F6627B00DA11D661F829F20
:100890002227B00DA11D621F739FB00DA11D621F05
:1008A000839FA00D611D221F749F3327A00D611D22
:1008B000231F849F600D211D822F762F6A2F112404
:1008C0009F5750409AF0F1F088234AF0EE0FFF1F37
:1008D000BB1F661F771F881F91505040A9F79E3F8E
:1008E000510580F00C94CB030C9416045F3FE4F3A5
:1008F000983ED4F3869577956795B795F795E795E4
:100900009F5FC1F7FE2B880F911D9695879597F9EC
:100910000895BB274A3031F4992322F4BDE2909523
:1009200081959F4F0C949504BB27FB015527AA275F
:10093000880F991FAA1FA41710F0A41B839550516C
:10094000B9F7A05DAA3308F0A95DA193009779F7E4
:10095000B111B1931192CB010C94AE04DC01FC01F6
:10096000672F71917723E1F7329704C07C916D93E3
:1009700070836291AE17BF07C8F30895F894FFCF54
:10098000203A200054656D703D2000206320000057
:00000001FF
