:1000000012C021C020C01FC01EC01DC01CC01BC00C
:100010001AC019C019C017C016C015C014C013C02B
:1000200012C011C010C011241FBECFE5D4E0DEBF46
:10003000CDBF20E0A0E6B0E001C01D92A136B2071E
:10004000E1F729D036C0DCCF1F920F920FB60F9286
:1000500011248F938FB182BB8F910F900FBE0F90A1
:100060001F90189587B3837D87BBBC9A6C988DB120
:1000700083608DB96E9A089587B38C6287BBBC98F4
:100080006C9A8DB183608DB96E9A08958FB9779B04
:10009000FECF8FB108958FEF81BB87B3837D87BB80
:1000A000BC9A6C988DB183608DB96F9A6E9A789472
:0600B000FFCFF894FFCF22
:00000001FF
