:1000000012C019C018C017C016C015C014C013C044
:1000100012C011C010C00FC00EC00DC00CC00BC06C
:100020000AC009C008C011241FBECFE5D4E0DEBF5E
:10003000CDBF14D024C0E4CF899A889810BC87E63D
:1000400089B988E18AB98EE080BD08955D9BFECFB5
:100050008CB908955F9BFECF8CB1089581E084BB7D
:10006000EBDFC1E0F7DF803FE9F785B38C2785BB85
:100070008FE493EC0197F1F700C00000F3CFF89400
:02008000FFCFB0
:00000001FF
