:100000000C9475000C9492000C9492000C94920045
:100010000C9492000C9492000C9492000C94920018
:100020000C9492000C9492000C9492000C94920008
:100030000C9492000C9492000C9492000C949200F8
:100040000C9492000C9492000C9492000C949200E8
:100050000C9492000C9492000C9492000C949200D8
:100060000C9492000C94920007634236B79BD8A779
:100070001A39685618AEBAAB558C1D3CB7CC5763CD
:10008000BD6DEDFD753EF6177231BF000000803F7B
:1000900008000000BE922449123EABAAAA2ABECD97
:1000A000CCCC4C3E00000080BEABAAAAAA3E000009
:1000B0000000BF000000803F000000000008417801
:1000C000D3BB4387D1133D190E3CC3BD4282AD2B38
:1000D0003E68EC8276BED98FE1A93E4C80EFFFBE30
:1000E00001C4FF7F3F000000000011241FBECFEFBE
:1000F000D8E0DEBFCDBF11E0A0E0B1E0E2EAF1E17F
:1001000002C005900D92A630B107D9F721E0A6E014
:10011000B1E001C01D92AA30B207E1F70E94CC0203
:100120000C94CF080C9400007F92AF92BF92CF92B4
:10013000DF92EF92FF920F931F93CF93DF9300D044
:1001400000D0CDB7DEB78C01FC015F01A01AB10A67
:1001500081918111FACFE12CF12CF80171908F017E
:100160007720C9F181E0A81AB108B5010B2C000C69
:10017000880B990B0E9484049B01AC0160E070E045
:1001800080E291E40E9403069B01AC01B701FF0CE1
:10019000880B990B29833A834B835C830E948404E8
:1001A0006B017C01872D90E0C097BC01990F880BF3
:1001B000990B0E94840429813A814B815C810E94C1
:1001C00096059B01AC01C701B6010E9469030E941C
:1001D0004C047B01C2CFC7010F900F900F900F907E
:1001E000DF91CF911F910F91FF90EF90DF90CF9013
:1001F000BF90AF907F900895AF92BF92CF92DF9261
:10020000EF92FF920F931F93CF93DF931F92CDB77F
:10021000DEB77B0149830E9494008C01C7010E94D4
:1002200094005C0149814D3201F130F44B32E1F52B
:10023000B801680F791F1CC04F3209F14837A1F58A
:10024000B801110F880B990B0E9484046B017C018B
:10025000B501BB0C880B990B0E9484049B01AC0177
:10026000C701B6010E94960523C0B801681B790B2F
:10027000072E000C880B990B0E94840419C0B8014A
:10028000110F880B990B0E9484046B017C01B5014E
:10029000BB0C880B990B0E9484049B01AC01C70125
:1002A000B6010E94DA0304C060E070E080EA90ECDE
:1002B0000F90DF91CF911F910F91FF90EF90DF9002
:1002C000CF90BF90AF9008959FE09AB990EF9BB9FF
:1002D00099B1903FE9F399B1903F31F0E3EDF0E34C
:1002E0003197F1F700C0000099B1903F09F4A0C028
:1002F00099B194FF16C095FF17C096FF18C097FFDD
:1003000019C02FEF3FEF90EF9AB99FE09BB999B1D9
:1003100090FF15C091FF19C092FF6FC093FF62C09C
:1003200066C020E030E008C021E030E005C022E0F7
:1003300030E002C023E030E09FEF98B9E4CF211510
:10034000310509F043C087E308952115310511F403
:1003500088E308952130310511F485E3089541E0E3
:1003600050E022303105B1F44130510529F14230DD
:10037000510521F14330510509F05AC08DE208952D
:1003800043E050E02130310509F43FC0223031050F
:1003900009F448C02330310509F04AC04115510520
:1003A00079F04130510571F04230510569F0433028
:1003B0005105F1F58BE2089582E3089583E30895F2
:1003C00083E6089580E308958DE308952130310593
:1003D00011F484E3089540E050E022303105D1F675
:1003E00081E308952115310559F68FE2089521150D
:1003F0003105F1F04FEF5FEFC5CF2115310511F455
:1004000089E3089542E050E0BDCF4130510509F441
:10041000A4CF4230510551F04330510509F0BACF15
:1004200088E7089541155105D9F29ECF86E30895D6
:10043000089585B984E088B989EF90E00197F1F7D4
:1004400000C0000018B883ED90E30197F1F700C0F9
:100450000000089588E30E94190289EF90E0019757
:10046000F1F700C0000081E00E94190289EF90E0DE
:100470000197F1F700C000008EE00E94190289EF99
:1004800090E00197F1F700C0000080E80E94190297
:1004900089EF90E00197F1F700C00000089585B959
:1004A00085E088B989EF90E00197F1F700C000007E
:1004B00081E088B983ED90E30197F1F700C0000077
:1004C0000895CF93DF93EC018991882319F00E945E
:1004D0004F02FACFDF91CF910895EF92FF920F93E1
:1004E0001F93CF93DF93182F092F682F792FC0E028
:1004F000D0E0EAE0F0E0CE0101961616170634F4DB
:10050000EC01CB01BF010E947A07F5CF0E94A20740
:100510009C01C80FD91FFE018AE0E82EF12CE217DA
:10052000F30759F0812F902FB7010E947A07162FF9
:10053000072F90E3980F9293F2CF1882CF01DF91AB
:10054000CF911F910F91FF90EF900C946102CF9289
:10055000DF92EF92FF926B017C010E944C04CB0171
:100560000E946D028EE20E944F0220E030E040E8DF
:100570005FE3C701B6010E94CA0420E030E048EC06
:1005800052E40E9496050E944C04CB01FF90EF902C
:10059000DF90CF900C946D028FEF84B987E087B91C
:1005A0000E942A0283ED90E30197F1F700C000005A
:1005B0008AE090E00E94A2076C018AE090E00E942D
:1005C000A2075C01E12CF12C00E010E0C0E0D0E0DB
:1005D0000E946401982F8B7F8B3221F1892F8F7EAF
:1005E0008D3201F19837F1F09336E1F0E114F10426
:1005F00061F49E012F5F3F4FCC0DDD1D9883F60106
:10060000E20FF31F1082E90142C098012F5F3F4FB4
:10061000F501E00FF11F9083F501E20FF31F108247
:10062000890135C086ED890F823008F44CC09D32B7
:1006300009F440C0983709F440C09F3209F440C023
:100640009D33F9F4492DB501C6010E94FC002B0130
:100650003C018DE30E944F0220E030E0A901C3017C
:10066000B2010E94D50387FF07C08DE20E944F02AE
:1006700077FA709477F87094C301B2010E94A702D0
:100680000FC0933621F481E00E9419029DCF9D3363
:1006900009F49ECF892F0E944F0280E10E94190227
:1006A0009FE72AE186E0915020408040E1F700C0BA
:1006B00000008ECF4DE2942E07C038E7932E04C081
:1006C0002FE2922E01C0992EEE24E394F12CE2CF7A
:1006D0005058BB27AA270E9480030C945C050E94F7
:1006E0004E0538F00E94550520F039F49F3F19F46B
:1006F00026F40C944B050EF4E095E7FB0C943705BB
:10070000E92F0E946D0558F3BA1762077307840733
:10071000950720F079F4A6F50C948F050EF4E0957A
:100720000B2EBA2FA02D0B01B90190010C01CA01AB
:10073000A0011124FF27591B99F0593F50F4503E56
:1007400068F11A16F040A22F232F342F4427585F48
:10075000F3CF469537952795A795F0405395C9F760
:100760007EF41F16BA0B620B730B840BBAF0915018
:10077000A1F0FF0FBB1F661F771F881FC2F70EC0B7
:10078000BA0F621F731F841F48F48795779567958A
:10079000B795F7959E3F08F0B0CF9395880F08F076
:1007A0009927EE0F9795879508950E94130508F4F1
:1007B00081E008950E94EE030C945C050E945505AB
:1007C00058F00E944E0540F029F45F3F29F00C9448
:1007D000370551110C9490050C944B050E946D0542
:1007E00068F39923B1F3552391F3951B550BBB2760
:1007F000AA2762177307840738F09F5F5F4F220FA5
:10080000331F441FAA1FA9F335D00E2E3AF0E0E89B
:1008100032D091505040E695001CCAF72BD0FE2FE5
:1008200029D0660F771F881FBB1F26173707480779
:10083000AB07B0E809F0BB0B802DBF01FF27935831
:100840005F4F3AF09E3F510578F00C9437050C94B9
:1008500090055F3FE4F3983ED4F3869577956795CE
:10086000B795F7959F5FC9F7880F911D9695879566
:1008700097F90895E1E0660F771F881FBB1F621785
:1008800073078407BA0720F0621B730B840BBA0B43
:10089000EE1F88F7E09508950E9453046894B11103
:1008A0000C94900508950E94750588F09F5798F064
:1008B000B92F9927B751B0F0E1F0660F771F881F65
:1008C000991F1AF0BA95C9F714C0B13091F00E947F
:1008D0008F05B1E008950C948F05672F782F882736
:1008E000B85F39F0B93FCCF3869577956795B395A6
:1008F000D9F73EF490958095709561957F4F8F4F15
:100900009F4F0895E89409C097FB3EF49095809519
:10091000709561957F4F8F4F9F4F9923A9F0F92FC5
:1009200096E9BB279395F695879577956795B79543
:10093000F111F8CFFAF4BB0F11F460FF1BC06F5F29
:100940007F4F8F4F9F4F16C0882311F096E911C03B
:10095000772321F09EE8872F762F05C0662371F05C
:1009600096E8862F70E060E02AF09A95660F771F70
:10097000881FDAF7880F9695879597F908950E9452
:100980004E0520F019F00E94550550F40C944B05CB
:100990000C949005E92F0E946D0588F35523B1F35F
:1009A000E7FB6217730784079507A8F189F3E92F1E
:1009B000FF2788232AF03197660F771F881FDAF701
:1009C000952F5527442332F091505040220F331F6A
:1009D000441FD2F7BB27E91BF50B621B730B840B7B
:1009E000B109B1F222F4620F731F841FB11D319758
:1009F0002AF0660F771F881FBB1FEFCF9150504022
:100A000062F041F0882332F0660F771F881F915003
:100A10005040C1F793950C943D0586957795679561
:100A20009F5FD9F7F7CF990F0008550FAA0BE0E8A1
:100A3000FEEF16161706E807F907C0F012161306A0
:100A4000E407F50798F0621B730B840B950B39F4E0
:100A50000A2661F0232B242B252B21F408950A2646
:100A600009F4A140A6958FEF811D811D089597F986
:100A70009F6780E870E060E008959F3F31F09150FB
:100A800020F4879577956795B795880F911D969572
:100A9000879597F908959FEF80EC089500240A94B4
:100AA0001616170618060906089500240A94121649
:100AB0001306140605060895092E0394000C11F47C
:100AC000882352F0BB0F40F4BF2B11F460FF04C029
:100AD0006F5F7F4F8F4F9F4F089557FD9058440F82
:100AE000551F59F05F3F71F04795880F97FB991F8D
:100AF00061F09F3F79F0879508951216130614064A
:100B0000551FF2CF4695F1DF08C0161617061806D6
:100B1000991FF1CF86957105610508940895E894B1
:100B2000BB2766277727CB0197F908950E94A9056F
:100B30000C945C050E944E0538F00E94550520F08B
:100B4000952311F00C9437050C944B0511240C944B
:100B500090050E946D0570F3959FC1F3950F50E0CD
:100B6000551F629FF001729FBB27F00DB11D639F5F
:100B7000AA27F00DB11DAA1F649F6627B00DA11D05
:100B8000661F829F2227B00DA11D621F739FB00DAB
:100B9000A11D621F839FA00D611D221F749F33271B
:100BA000A00D611D231F849F600D211D822F762FB4
:100BB0006A2F11249F5750409AF0F1F088234AF091
:100BC000EE0FFF1FBB1F661F771F881F91505040FD
:100BD000A9F79E3F510580F00C9437050C949005C1
:100BE0005F3FE4F3983ED4F3869577956795B79584
:100BF000F795E7959F5FC1F7FE2B880F911D96959E
:100C0000879597F90895FA01EE0FFF1F3096210599
:100C10003105A1F16115710561F48038BFE39B07CF
:100C200049F168949038810561F08038BFEF9B07E7
:100C300041F099234AF5FF3FE1053105210519F1FE
:100C4000E8940894E795D901AA2329F4AB2FBE2F85
:100C5000F85FD0F310C0FF5F70F4A695E0F7F739A6
:100C600050F019F0FF3A38F49F779F930DD00F9012
:100C700007FC9058089546F00C944B0560E070E036
:100C800080E89FE308954FE79F775F934F933F93EB
:100C90002F930E94FE062F913F914F915F910E94EA
:100CA00096050C945B0629F416F00C9437050C9409
:100CB0008F050C944B050E947505A8F39638A0F794
:100CC00007F80F92E8942BE33AEA48EB5FE70E94BB
:100CD000AC050F920F920F924DB75EB70F920E9424
:100CE0004607E8E6F0E00E948D064F915F91EF9194
:100CF000FF91E595EE1FFF1F49F0FE57E06844277E
:100D0000EE0F441FFA95E1F74195550B0E94C0067E
:100D10000F9007FE0C94B4060895DF93CF931F93B2
:100D20000F93FF92EF92DF927B018C01689406C0D3
:100D3000DA2EEF010E94A905FE01E894A591259104
:100D4000359145915591A6F3EF010E948003FE0174
:100D50009701A801DA9469F7DF90EF90FF900F9167
:100D60001F91CF91DF9108959B01AC0160E070E08D
:100D700080E89FE30C94DA030C9437050C943D054E
:100D80000E947505D8F39923C9F3940F511DA3F35D
:100D90009150504094F059F0882332F0660F771F3D
:100DA000881F91505040C1F79E3F51052CF7880F86
:100DB000911D9695879597F908955F3FACF0983E01
:100DC0009CF0BB27869577956795B79508F4B16039
:100DD0009395C1F7BB0F58F711F460FFE8CF6F5F31
:100DE0007F4F8F4F9F4FE3CF0C94900516F00C94DC
:100DF0003D050C944B0568940C9437050E947505CD
:100E0000A8F39923C1F3AEF3DF93CF931F930F930E
:100E1000FF92C92FDD2788232AF02197660F771FBD
:100E2000881FDAF720E030E040E85FEB9FE3883985
:100E300020F0803E38F021968F770E946903E0E928
:100E4000F0E004C00E946903EDEBF0E00E948D0623
:100E50008B01BE01EC01FB2E6F5771097595771F51
:100E6000880B990B0E94840428E132E741E35FE399
:100E70000E94A905AF2D9801AE01FF900F911F911F
:100E8000CF91DF910E9480030C945C05FA01DC0194
:100E9000AA0FBB1F9B01AC01BF5728F422273327A1
:100EA0004427507820C0B75190F4AB2F00244695CA
:100EB00037952795011CA395D2F3002071F0220FDE
:100EC000331F441FB395DAF30ED00C9468036130DE
:100ED0007105A0E88A07B94630F49B01AC0166278A
:100EE000772788279078309621F0208331834283BA
:100EF0005383089597FB072E16F4009407D077FDCF
:100F000009D00E948E0707FC05D03EF4909581958C
:100F10009F4F0895709561957F4F0895AA1BBB1B45
:100F200051E107C0AA1FBB1FA617B70710F0A61BE9
:100F3000B70B881F991F5A95A9F780959095BC010A
:100F4000CD010895CF93DF938230910510F482E0B4
:100F500090E0E0910801F091090120E030E0C0E06C
:100F6000D0E0309711F14081518148175907C0F006
:100F70004817590761F482819381209719F09B8368
:100F80008A832BC0909309018093080126C0211504
:100F9000310519F04217530718F49A01BE01DF0119
:100FA000EF010280F381E02DDCCF2115310509F13D
:100FB000281B390B2430310590F412968D919C91A9
:100FC00013976115710521F0FB019383828304C09F
:100FD0009093090180930801FD01329644C0FD0100
:100FE000E20FF31F81939193225031092D933C938B
:100FF0003AC02091060130910701232B41F4209142
:1010000002013091030130930701209306012091E2
:101010000001309101012115310541F42DB73EB792
:101020004091040150910501241B350BE09106010C
:10103000F0910701E217F307A0F42E1B3F0B2817CE
:10104000390778F0AC014E5F5F4F2417350748F041
:101050004E0F5F1F509307014093060181939193B8
:1010600002C0E0E0F0E0CF01DF91CF9108950F934F
:101070001F93CF93DF93009709F48CC0FC01329744
:1010800013821282009108011091090101151105C6
:1010900081F420813181820F931F209106013091CC
:1010A00007012817390779F5F0930701E093060146
:1010B00071C0D80140E050E0AE17BF0750F412965F
:1010C0002D913C911397AD012115310509F1D901FD
:1010D000F3CF9D01DA013383228360817181860F12
:1010E000971F8217930769F4EC0128813981260F35
:1010F000371F2E5F3F4F318320838A819B819383EB
:101100008283452B29F4F0930901E093080142C042
:101110001396FC93EE931297ED01499159919E011C
:10112000240F351FE217F30771F480819181840F3A
:10113000951F029611969C938E93828193811396AC
:101140009C938E931297E0E0F0E0D80112968D9177
:101150009C911397009719F0F8018C01F6CF8D91AF
:101160009C9198012E5F3F4F820F931F20910601A3
:10117000309107012817390769F4309729F4109244
:1011800009011092080102C0138212821093070114
:1011900000930601DF91CF911F910F910895F8946C
:0211A000FFCF7F
:0611A20000000A0120001C
:00000001FF
