:1000000012C021C020C01FC01EC01DC01CC01BC00C
:100010001AC019C018C017C016C015C014C013C02C
:1000200012C011C010C011241FBECFE5D4E0DEBF46
:10003000CDBF20E0A0E6B0E001C01D92A136B2071E
:10004000E1F71BD02CC0DCCF87B3837D87BBBC9A84
:100050006C988DB183608DB96E9A089587B38C6268
:1000600087BBBC986C9A8DB183608DB96E9A0895E8
:100070008FB9779BFECF8FB1089587B38C6287BB12
:10008000BC986C9A8DB183608DB96F9A6E9A80E03E
:1000900091E0980F8FB9892F779BFDCFF9CFF89416
:0200A000FFCF90
:00000001FF
