:1000000012C019C018C017C016C015C014C013C044
:1000100012C011C010C00FC00EC00DC00CC00BC06C
:100020000AC009C008C011241FBECFE5D4E0DEBF5E
:10003000CDBF64D06CC0E4CF11B882E080B986B780
:10004000846086BF089584EA86BF06B607FEFDCFAA
:10005000089584E986BF089583B984EA86BF06B609
:1000600007FEFDCF0895811102C084EC01C084E831
:1000700086BF06B607FEFDCF83B1089594E096BF14
:1000800082B984EC86BF089583B984EC86BF06B636
:1000900007FEFDCF0895811102C084EC01C084E801
:1000A00086BF06B607FEFDCF83B1089506B607FEEC
:1000B000FDCF089583B984EA86BF06B607FEFDCF5B
:1000C0000895811102C084EC01C084E886BF06B6A1
:1000D00007FEFDCF83B1089583B984EC86BF06B6D1
:1000E00007FEFDCF0895811102C084EC01C084E8B1
:1000F00086BF06B607FEFDCF83B108958FEF81BBA3
:1001000080EDBCDFD3DF81E0C6DF82BBFFCFF89498
:02011000FFCF1F
:00000001FF
